S123E0007EE339CE13880926FD7F00088E00FF86CA970286DE9700861497039701CE00201B
S123E020A600A10026DA630043A10026D3630043A10026CC088C028825E68E02877204085E
S123E0407F005786059756BDF7590EBDEBE67F00387F0037CE01618630C608A10026074C8A
S123E060085A26F72019CEF834BDECC5BDF501CE0151C610860EA700085A26FA7EE34296DD
S123E0803A81FF26067F00CCBDF13C86FF973B963697737F0036BDF437D7C5816226067379
S123E0A0003B7EE143817A26037EE066816D262BCE0020A600630043A100260F630043A101
S123E0C0002608088C1FFF23EA2008CEF812BDECC220DDCEF809BDECC52068816B2605BD4E
S123E0E0F539205F816C2605BDF52C205681642607CE00CBC601200981652620CE4B75C6E8
S123E10027DF5AD75CBDF3BE7F00080E751002DE5AD65C0926FD5A26FA0120F08179261C81
S123E1207F00CCBDF234BDF25EC608D78AC601BDF2CCBDF2E1963CBDF06A2007816826037D
S123E140BDFD6896739736963036BDE5BCBDE76C32D134250781502203112402D7308E0232
S123E160878601975686FF9757BDECA2BDF3F97F003A8190241F36BDEADF260632BDEA94D7
S123E18020EABDE20D2603BDE2C032BDE5DE20CE8E028720DD809016CEE1A33A3AEE00AD02
S123E1A00020BBE6BFE6F1E72FE74DE26FE27BE2E8E416E46FE283E30DE3AAE3FBE4E6F576
S123E1C09EF6B2EA94EA94E853EED3E777E792E7B0E773E7D1E845E81EFA20FC93FD08EEAE
S123E1E0CDE40AF001EED9F006F377CE0288DF73962F976ECE01907A006E270CEC00847F6B
S123E200D373DD73080820EFDE73DC73398D03EE0039D62FCE018E3A3A398DF126128DCB98
S123E220DF25DF27DF29DF2B4F97349730DF2D398DB908DF25DF2DBDE212EC008300028494
S123E2407FD325DD277F0030BDE5BC7EE3E7962F4C816323028601972F397A002F260486F1
S123E26063972F398DB4BDECA2BDF3F98196398DDD8DF127FA7F00377EE1728DDD8DE52720
S123E280FA20F2BDE20D26037EEA94CEF935C60C962FBDECCFBDF3F988992705880E2701DE
S123E2A0399737DE2509DF2D7C002FBDE1EB7A002F932DBDEA73BDE2126F006F017EE21A7A
S123E2C0BDE1EBDF2DC602BDEA1EDE2D963D973CA70008868DA700DF25DF2DDF27BDE21237
S123E2E0CC0002ED007EE5BC7F00378D06BDE21A7EEDEC962F9772BDE24E91722706BDE25D
S123E3000D26F439CEF8EDBDECC27EE15ECEF8DCBDECCA819A270139BDEA99CEE32ABDEC69
S123E320CA819A26F28D357EE15E41524520594F552053555245203FA08D0E8D0C8D0A7EC1
S123E340F74A8D188D037EE15EBDEA94717F02C632BDEACF728002C6327EEACFCE01906FFA
S123E36000088C025626F88628973C973DCE01618630C608A7004C085A26F9CE0023CC0253
S123E38087ED0008088C002D23F76F00088C003923F8BDE81ECE00466F00088C004E26F885
S123E3A08601972F7EE21ABDEA94BDEADF2764CEF96EC614963CBDECCFCE9B9BDF5ABDEA09
S123E3C0F5810A25E2815022DE913C2719973C973DBDE20D2710DE25DF2909A700BDEA01E7
S123E3E07F0031BDE76C393CBDEADF270CBDE20D2707DE2509A600973C3839BDEADF27139B
S123E400DE2D9C27240D73003739BDEADF2704730036397EEA94BDEADF27F8BDE20D27F31C
S123E420DE2D9C2522069C2725E92037D630270E5AD13422192607A600818D27110809DFDE
S123E4402D7A0030C601BDEA63BDE665200BD634A600818D27015CD73086FF9738DE279C9F
S123E46025220BBDE212CC0002ED007EE2A139BDE20D279FBDEADF279A7D00302615DE2BF6
S123E4809C272534DE299C25231A09A600818D2613202596309134250BDE2B9C27244C081D
S123E4A0DF2D2024DC2B932D2703BDEA63DE2D9C27241508DF2D2010DC2B932D5CBDEA6395
S123E4C0DE279C2D2402DF2DDE279C252395BDE5BCBDE6657F0031BDECA2BDF3F9819A266F
S123E4E002208C7EE190BDEADF26037EEA94CEF924BDECEAC60CCE9C9DDF5ABDEAF54D2730
S123E500EAD62F1127E5D772972FBDE20DDF702606D672D72F20D4BDEADF36962FD6729713
S123E52072D72F324D2607BDE20D275720BDBDE20D27508D0DD672962FD72F97728D7D7E4B
S123E540EA01DC70847F830001DD70DE29DF2D7F0030BDEA269672D62F972FD772112405C7
S123E560BDE1EB2005BDE1EBD370DD73DC2DD370DD709F6C9E73DE2D33E700089C7025F8C2
S123E5809E6C39BDE2C0BDE542BDE1EBA600DE2509A700BDEADF36D672962FD72F97723205
S123E5A04D2609BDE212A6008A80A700DE27DF2DC601BDEA63DE25DF2D7EE5BC36DE2D9CE6
S123E5C0252706096D002AF708DF295F9C2727086D002B045C0820F4D734DF2B3239810DCB
S123E5E026037EE680BDE6B17D00372625DE2D9C27241FD630D13C2513DE2DE600C18D26F6
S123E60006C6FFD737200B4D2B1CD630D134250A2031D634D130232B203EDE2DA70008DF83
S123E6202D7C0030203FD630D034270B36BDEA1EBDEA0F08DF2D32DE2DA70008DF2DBDE503
S123E640BC202236D630D0345CBDEA1EBDEA0F3209A7007C0030200D36C601BDEA1E3208EA
S123E660A70008DF2D96309766BDE9C3BDE5BCBDE76C9630916627037F003186FF9738391D
S123E6807D00372614DE2BDF2D963497309C272405BDF5D9200CBDF611C601BDEA1E868DDC
S123E6A0A701DE2D08DF2D7F0030BDE5BCBDEAD639D63CD030C108260536BDEAAA3239BD17
S123E6C0EADF2768730038DE2D9C2522057D0030275A9630260F963C973009DF2DBDE5BC0B
S123E6E07F0031200A9134220309DF2D4A9730203ABDEADF2736BDE20D2603BDE2C0730048
S123E700389630913C2B0FDE2D9C27241F08DF2DBDE5BC4F200A91342405DE2D08DF2D4C9B
S123E7209730DE2D9C2725037F0037397EEA94BDEADF27F8730038DE299C2523EF09DF2DEE
S123E740BDE5BC7F00318D167F003720DEBDEADF27DA730038DE2B9C2724D10820E0D6304F
S123E760D1342302D634DE293ADF2D39DC2D9329D73039DE292002DE253CBDEADF38274E3B
S123E7809C2D25057D00302745DF2DBDE5BC7F003039BDEADF2737DE2B9C2D2206D630D162
S123E7A03C242BDF2D963C9730BDE5BC7F003739BDEADF2719DE279C2D2206D630D13427EA
S123E7C00DDF2DBDE5BC963497307F0037397EEA94BDEADF27F8730038BDE20D2603BDE27E
S123E7E0C07D0037270696309134250A8D1922DED730BDE75E398D0F22FBD030BDEA1EBD97
S123E800EA0FBDE66520EED630CE01005C3A6D0026095C088C015023F5C67FD13C39BDEA53
S123E820DF27ABCE01006F00088C015023F8CE010886FFC608A7003A8C015025F8DE29DFFA
S123E8402D7F003039BDEADF2784D630CE01003A630039CEF851BDED82BDEDCDCE0055DF07
S123E860ABCE004DDFA9CE0008DFADBDF4EB7F0045BDE9A586299732BDECF9CE004E860B72
S123E8806D0027098C005627044C0820F39732BDF3F981A2273F8197272581902501397D17
S123E8A000452606BDEBDA730045CE004E6D00270A088C005623F68D6D20D4A70020B2CEB7
S123E8C0004F6D002706088C005623F6096F0086FF9745209C964E274DBDEBBF7F00080E5F
S123E8E0962F9772DE2DDF70BDE20D2749BDEADF2744DE2D9C27243E964EBDE99A16A600CF
S123E900BDE99A1126238D5B261FDF2DBDE5BCBDE76CBDEC74BDEDEC0F720408BDF3F98148
S123E920A227BD7EE1907EEA94089C7026C6962F917226C02012BDE24EBDE21ADE2D9C70C5
S123E94026A6962F917226A00F720408CEF81EBDED82BDEDCDCE00CF8D4EBDECF9BDE9265F
S123E9607EEACD3CDFA9CE004EDFABDEAB8C0056271EA600271A08DFABBDE99A16DEA9A648
S123E98000BDE99A11260F9C27270B08DFA920DB3131DEA94F393886FF3981612506817AFE
S123E9A0220284DF39CE00D8DF73CE004EA6003C26028620DE73A70008DF7338088C00565B
S123E9C026EB39DE299C25230809A600818D26F5084F5FDD6EA600818D260139847FA7005F
S123E9E081202602DF6E085CD13C23E93CDE6E260538090920023333A6008A80A70008207C
S123EA00D08DC09C27240508DF2920F57EE5BCDE2D368620A700085A26FADF2D32394FDDF2
S123EA206EDE233A2007DD6ED3233736388C1FFF221B9F6C3531DC27D36EDD27DE239F23B9
S123EA40E60037099C2D24F89E6CDC6E398E028786049708BDEA99CEF8B2BDECC5728002C0
S123EA607EE15E4FDD6EDC27936EDD27DC6EDE2D3A2009DD6EDC2DD36E373638DC23936E41
S123EA80DD239F6C35DE2D33E700089C2323F89E6CDC6E394FC60A201B8610C6068D154FF1
S123EAA0C60A8D10860AC606200A8610C60320048610C60197337D003B271171F9029602C1
S123EAC084EF9A339702BDEACF72020239C664BDEAD65A26FA393CCE09BE0926FD3839BDAF
S123EAE0E2126D002B0386FF394F39C62F5C800A24FB8B3A39D76696373686FF97379666B6
S123EB004C97328A80BDEC37BDF3F9915A2721915B271D8130252F8139222BCE00CDD66603
S123EB203AE601E700A70186299732BDECF920CECE00CDD6663AA600840FC60A3DA6018497
S123EB400F1B33D73739BDEA9420B3D76696363696373686FF97369737BDF43726FB966698
S123EB604C97328A80BDEC37BDF3F9810D272581302547813923088141253F8146223BCEF5
S123EB8000CDD6663AE601E700A70186299732BDECF920CACE00CDD6663AA60080308109C3
S123EBA02302800748484848E601C030C1092302C0071B33D73733D73639BDEA94209FCE5B
S123EBC000466F00088C004E26F809DFABCE0055DFA9CE0008DFAD7EF4EBCE004E6F0008EC
S123EBE08C005626F8390FCEF9CAA600B78000BDEAD6088CF9D625F28640BDEC3BCEF9D61D
S123EC007F005A3CCE000A0926FDCE0040B68000F680004D2A060926F47EE33B5454545491
S123EC2084301B915A26F238A600BDEC577C005A088CFA1625CD39368D2C323684F0B78079
S123EC4000323648484848B7800032810126167EEAD636BDEC66323684F0B78001324848A8
S123EC604848B78001393637B68000F680004D2BF7333239963C802822057F003120224C8A
S123EC8091312402973196312A037F00319630802723069131230297319630913124029792
S123ECA03139BDE20D2716DC279325C30002DD6EBDE212DC6E6D002A028A80ED008DB57EE7
S123ECC0EDECBDEA948D237EEACD8D1E7EF3F9DD66BDEDCDDC66CE00CD3ABDEAEBE700A731
S123ECE001862997328D12DC6639BDEDCD862997327F00572003BDEEAE8601BDEC378680CF
S123ED00BDEC37CE00CDC628A600BDEC52085A26F7963A81C0250E81C5220A36BDEEC532D8
S123ED204A81C124F686C78D56963C8129250686CA8D4C200486CB8D467D0036270486D2AB
S123ED408D3D7D0037270486D98D34DE2386DD8C1FFF24134C8C18A1240D4C8C1143240788
S123ED604C8C09E524014C36BDEEC5324A81DD24F6963C812123069632811A2C1486E57E95
S123ED80EEC53CCE00CD8620C628A700085A26FA38393CCE0100D6313ADF66C600DE663AE2
S123EDA0A60084028B04CE00CD3AA7005CC12825ECD63CC12824148607CE00CD3AA7008600
S123EDC020088C00F52404A70020F63839BDED829F6C35CE00CD3216847FA700085D2AF6B2
S123EDE0C1A026058EF9BC20ED9E6C398DA4BDE20D26037EEE86BDEADF26037EEE92DE2944
S123EE00D6313AC6009C2B2414A6003CCE00CD3A847FA70038085CC12826EA20142212D1B9
S123EE203C270EA600818D2708CE00CD3A847FA700D630D031D13C2605C12826015AD73249
S123EE40963C81212304C11A24398601DE299C25271909DF6EDE253609086D002AFB324C9C
S123EE60816425014F369C6E26EF32BDEAEBD7F097F1862097EF862D97F2962FBDEAEBD736
S123EE80F397F47EECF9CEF76ABDEDCD8600973220B8CEF7A9BDEDCDBDE212EC00847F8DAE
S123EEA00A862997327F00577EEE7ACE00E46C008303E824F96A01C3006424F917BDEAEB0F
S123EEC0E702A70339BDEC3786057EEC52864CC6FF20098648C60120035F864ED73936BD8D
S123EEE0E20D26037EEA94CEF985717F0286299732BDEDCD3297DCDC279325C30002CE00DA
S123EF00F0BDECF6BDF3F981B126F97F0008CEF9ADBDECEA7D00392A0586CCBDEEC5BDF37F
S123EF20BE8D14BDF3D5728002DE25DF2DBDE5BC7F00307F0039397F00080EDE25DF2DC67E
S123EF4032BDEACFD6395C58CEF3E13AEE00DF5ADF0B86089708C610374FBDEFB8335A26B5
S123EF60F70FC650BDEACFBDEADF43978D0D0EC60437968DBDEFB8335A26F6DE2D09A60008
S123EF80BDEFB8DE2D5F37A600BDEFB8DE2D9C27240E08DF2D335A2AED758002C60820E6DB
S123EFA033C620378604BDEFB8335A26F6C632BDEACF860497080F3936C6080C7900443E7C
S123EFC0475A26F8337D008D2B0A4FCE00075789000926FA477900443E0D7900443EDC0B9E
S123EFE0D35ADD0B399644442408721002721003200671EF0271EF039608DC0BD35ADD0BE7
S123F0003B7F00CC200486FF97CCBDF234BDF3C8BDF25E8608978ABDF27EBDF2CCBDF2FDEF
S123F0204D26F496038808948A27ECBDF2E1BDF2FD978DBDF2FD978EBDF2FD978FBDF2FD5C
S123F04097904FCE008DC608640089005A26F9088C009023F18BF456810D2409CEF20FBD53
S123F060ECC57EF13CD78DBDF2FDDE2D09A7007F005DBDF2FD7D008D2B18DA8CD78C8A80BD
S123F080818D270E847F81042308812024044F72808C978B810427057F005E200C7C005E2A
S123F0A0D65EC10325037EF130D65CC128252BD65F5A2B0FC1032620D75F86C1BDEC3B9658
S123F0C08B20177580027B80022704860520028620BDEC57968BC608D75FDE2DA70008DF3A
S123F0E02DD65CC128240D5CD75C7D008D2702863FBDEC57DE2D9C2724317D00CC271371F5
S123F100BF02B6404072400284022706BDF2527EF0107D008C2B037EF06FDECA08DFCA7C25
S123F120005D965D81642C147EF072BDEA99203ADE2D09097D008D2B0109DF2D0FDC2793CF
S123F1402DDE2D9C25221509DF2DC30002BDEA73BDE2126F006F01BDE21A20427D008D2AA8
S123F16004C3000109DF27BDEA73BDE212DC279325C300029A8DED00DE25DF2D7D008D2B11
S123F1801D09A600810A2D0481502F048628A700973CBDE5BCBDEA017F0030BDE5BC7280B2
S123F1A0028604970886C5DECA2723CE0000DC279325C300020893CA22FB86C58C006424B4
S123F1C00D4A8C000A24074A8C000324014A973A1686C61036BDEA94C60ABDEACF324A262F
S123F1E0F3BDECA2BDE3E7CEF21FBDECEADC2793252703C30002CE00D8BDECF67F00397DB0
S123F20000CC26037EE16CC664BDEACF7EF00A2A2A2A204241442054455854202A2AAA52D8
S123F22045434549564544203A202F3A30302042595445D3BDE20D2706BDE2F3BDE21A7FC8
S123F24000377F0008BDE2C0CC1FFF9323DD5ABDEA26DE25DF2D86FF973A7F008D39CE0071
S123F26000DFCA86299732CEF946BDEDCDDC5ACE00F0BDECF6717F0286FF973A0E39750945
S123F2808ACE006496038808948A27F20926F5CE012C0927E996038808948A26F5CE0000E6
S123F2A0088C06D624D896038808948A27F28C018C25CBC6018C01B523118C031825BF5A53
S123F2C08C036B23068C062F25B45A39D7395C58CEF3ED3AEE00DF60CEF3F33AEE00DF62E4
S123F2E0398601BDEC378680BDEC377F005CC63CBDEACF7F005E7F005F717F02397F008C40
S123F30096038808948A27F896038808948A26F8860897B3D6395C58CEF3E73AEE00092684
S123F320FD7F008BCE00075F96038808948A27035C20030120003CDE620926FD380926E886
S123F340C1022307C104220372808C54545476008BDE600926FD7A00B32EC95F968B7D00CC
S123F3608D2B13CE000846C9000926FAC4015656968B847F978B39CEF865BDECCA81B326C8
S123F3803CCEF9ADBDECEA86019739BDF3BE962F97727F002F7C002F962F81632212BDE2BE
S123F3A00D27F2BDE21ABDEF37C696BDEACF20E59672972FBDF3D57F0039BDE21A39D602DB
S123F3C0C4F9CA10D7022008D602C4F9CA04D702C6327EEACF71FE0386C8970286CA9702E4
S123F3E0390D0506830341046002300104027801260087001400080001BDF437270481FF7E
S123F40026087F00C50E1A0F20EFD1C5261A7D003827F27A009B270A0ECE04E20926FD0F49
S123F42020D7C60CD79B2006D7C5C642D79B36BDEAB0327F003839CE009D3C860997A6CE61
S123F4404001DFA771BF02B6401F260772400297C43839DEA7A6009AA898A838A700083C1D
S123F460DCA70588C0DDA77A00A626E77240023896A0848181812735973598A097A086CFF2
S123F480BDEC3796352704860520028620BDEC525F096D00270B86090C660024015C4A264B
S123F4A0F88C009D26EB4FC1012504270586FF97C439BDF759CE009CC6F708CB086D0027F4
S123F4C0F95C660024FBCEFF029635270ACEFF4A81012703CEFF923AA6007D003627D08156
S123F4E06125CC817B24C8802020C4DEA9A60009DFA9DEABA70009DFABDEAD09DFAD26EB98
S123F500399F6CCE016A6F00088C019025F88EFFD9CE016A32A700088C017125F7CE017DD3
S123F52032A700088C018425F79E6C39CE0170C6065C086D0026FA20048DC6C607D771CE20
S123F540F88CBDECEA86159732BDF3F94D2BDCCE00E2A7003686299732BDECF932CE016A1D
S123F5605FA100270D085CD17125F65CC11322BBD771A700A613DF5C8D12D7E797E8BDEC1D
S123F580F9C61ABDEB4BDE5CA71320B336444444448D041632840F8B9019894019397F0054
S123F5A037BDE20D272EBDEADF2729CEF783BDECEABDF6A5DE25DF2DBDE5BC8D5FDE2B089C
S123F5C09C2725F20FDE25DF2DBDE5BC7F00308604970839BDEA9420EC7F0031BDE5BC86E5
S123F5E07F97307F00709634802825029770BDEDECC678BDEACF9631917024158B0A97318A
S123F600BDEDECC63CBDEACF9631917025EEBDEAAABDF6A58D06860497080F39DE2BA600A1
S123F62009847F812027F708DF5CDE29DFB1A600BDF660DEB1089C5C23F209A600818D27E0
S123F64004860D201B39BDF6A5CE00CDDFB1A600BDF660DEB1088C00F525F1860D8D0139D7
S123F660847FC613CE016AA1002706085A26F82002A61336C6083ED50327FB71EF03C607DC
S123F680477900443E5A26F8325FCE000747C9000926FA547900443E0D7900443EDC0BC30C
S123F6A00341DD0B39CE0341DF5ADF0B860897080E397F00080E962F367F002F7C002F96B9
S123F6C02F81632226BDE20D27F2BDE21ABDEADF2706BDEC74BDE5BCBDED82BDEDF6BDF6A0
S123F6E046BDEA94C632BDEACF20D132972F0F860497087EE21ADC087A00562E4586059733
S123F7005686D5BDEC378620BDEC527D00322B327D0057260CCE00CDD632C47F3AE600207B
S123F720137B0102260586D5BDEEC5C6017D00372602C60096328A80BDEC3717BDEC52739E
S123F7400057DE5809DF5827013B7F000871F70271FB038E02873E20FA3CCE02FBDF583830
S123F760398601975686FF9757393C204652454520BE2A2A2A2057524F4E47204B4559207C
S123F7802A2A2A20202D20504C45415345205741495420AD454E2F4445435259505420542D
S123F7A0455854202E2E203FA0454E4352595054454420544558542C204C454E4754482098
S123F7C02F3A39392042595445D34E4557204B45593A202E2E2E2E2E2E2E2E2E2E2E2E2E80
S123F7E02E2E2EA03C204E4557204B455920414343455054454420BE4E4557204B45593A28
S123F8002054455854203030A04D454D4F5259204FCB4D454D4F5259204552524FD23C20ED
S123F8202E2E2E2E2E2E2E2E204E4F5420464F554E4420BE434F5059524947485420313986
S123F840383420574553542D5445432050582056B253454152434820464F52202E2E2E2E47
S123F8602E2E2E2EA0535441525420275245434F524427204F4E2054415045A02A2A2A202C
S123F8804241442054455854202A2AAA434F4E56455253494F4E2043484152414354455267
S123F8A0202E202D3E20303020202B205245545552CE2A2A2A204D454D4F52592046554C82
S123F8C04C202A2AAA2A2A2A204552524F5220494E20282828292929202A2AAA434C454195
S123F8E05220414C4C2054455854203FA02A2A2A204E4F20465245452054455854204156BC
S123F90041494C41424C45202A2AAA2A2A2A2043414E204E4F542043414C43554C415445AC
S123F920202A2AAA494E534552542054455854203030203FA044454C4554452054455854D4
S123F940202E2E203FA0524541445920544F2052454345495645202020202020202020208D
S123F9602020202020202020282F3A3939A9534554205249474854204D415247494E20410E
S123F98054202E2EA0524541445920544F2053454E44205B2E5D202D2050524553532053FE
S123F9A0454E444B455920282F3A3939A93C205452414E534D495454494E4720BE2B20503E
S123F9C0524553532041474149CE30303020208000C0001000601F1F1F1F1F1F1F001B1161
S123F9E0000000111B000E000E111F1111000E000E010F110F000000000000001F000200FC
S123FA000000000000000000000000041F000404040404040400975A43484848489A5A3922
S123FA20BDE20D26037EEA94CEF794C610962FBDECCFBDF3F981AB270139CEF783BDECEA74
S123FA40BDE212A6002B163CBDFE2138250DCEFC6CBDECC5BDEACDBDEACD39A6008880A76E
S123FA600097BEC604CE01503AA600A8048DA7CE00743AA7005A26EDC604CE01583AA60023
S123FA80A8048D92CE00783AA7005A26EDC604CE0075A600A80488F0A708085A26F4C60F2C
S123FAA0CE01503AA600BDFA16CE00893AA7005A26EE86FF9799DE2509DF2DC61FD75CCE1D
S123FAC0FEDBD65CC40F3A968AA400975A968BA401985A975A968CA402985A975A968DA43A
S123FAE003985A975A968EA404985A975A968FA405985A975A9690A406985A975A9691A43E
S123FB0007985A975A9692A408985A975A9693A409985A975A9694A40A985A975A9695A4FD
S123FB200B985A975A9696A40C985A975A9697A40D985A975A9698A40E985A975A9699A4BD
S123FB400F985A975A44985A8455975ACE008AD65C53C40F3AA6004884AA9A5AA7007A0094
S123FB605C2B037EFABFC604CE00893AA607488900488900A800CE00813AA700CE00743AC2
S123FB80A600A80837CEFE4B585858583A3C16545454543AE60058585858D75A16C40F38AF
S123FBA03AA6009A5A33CE00783AA800CE00853AA7005A26B3C60836378603CE00835F68CF
S123FBC00059680459084A26F6CEFE9B3AA6003337445A26FC3332495A26DC9882988636AC
S123FBE0DC2D9325325CC40727064889005A26FADE2DE600A800A70008DF2D9C27221B7D9E
S123FC0000BE2B01179781C604CE007DA601488900A700085A26F57EFABB7D00BE2B42DE5D
S123FC20254F5F6D002A03C30001089C2723F40505DD5ADC279325C30001189C5A2409CEE4
S123FC40F772BDECC57EFA40DE27868DA700DE2509A600810A2504815023048628A7009708
S123FC603CDE25DF2DBDE5BC7F0030392A2A2050582057494C4C204E4F5420454E435259C9
S123FC805054202848455829204E554D42455253202AAACEF7CABDED82BDEDCD86099732AC
S123FCA096323686299732BDECF9329732BDF3F981AB273B81AC273781902417CE00CDD6AE
S123FCC0323A8C00E62605BDEA9420E1A7007C003220CD81972705BDEA9420C4D6325AC113
S123FCE00925F4D732CE00CD3A862EA70020B1C610CE00D53AA600840FCE01503AA7005A8E
S123FD0026EFCEF7E47EECC5CEF7F8BDECEAC60ECEABADDF5ABDEAF54D26037EEA94DE2D56
S123FD203CD62F37972FBDE20D2705BDEADF260F33D72FBDE21A38DF2DBDE5BC7EEA94BDA1
S123FD40E21AC60FDE253AA600840FCE01513AA7005A2AF027EE32972FBDE21A38DF2DBD1C
S123FD60E5BCCEF7E47EECC5BDE212EC0027532A54847F05C30001DE27DF2DBDEA26DE27C2
S123FD80868DA700DF5ADE2DA600BDF58CDE5A090909A702E7018620A700DF5ADE2D9C2547
S123FDA0250509DF2D20E18618973CA70008DF2D7F0030BDE212A600847FA700BDE5BC7E47
S123FDC0EA017EEA94BDFE2125F8BDE212A6008A80A7005FDE2509DF5A08DF2DA600847FD6
S123FDE081202726812C2722810D271E803081092304841F8007DE5A6800680068006800E5
S123FE00AA00A700532B0308DF5ADE2D089C2723C918935ADE5ADF2DBDEA73DE2D09DF278C
S123FE2039DE255FA600847F810D272781202720812C271C813025218139231081412519E2
S123FE4081462308816125118166220DC80120035D2606089C2723CC390D39060A01020EAF
S123FE600708090C04030F0B00050D020700050F0301090E0D0B080C0A04060901030C0294
S123FE80000A0E0D060B0705080F040B060900050E0F08040C010D0207030A964B653AAC5D
S123FEA06C537478A547B24DA6595A8D562BC371D2663C1DC9932EA97217B1B4E4A34E275F
S123FEC05C8BC5E895E1D187B81ECA1B63D82DD49A99368EC669E239356A9C0B0A780CE0D0
S123FEE0297BCFC34B2BCC826080060B0A780CE0297BCFC34B2BCC826080AA5555AA557EFA
S123FF00E003002D3836353331B1300000377934329E3AA8006867727371A00D9A009293BE
S123FF2091A197A22C6E006390B0709C6975740077AB3BB36B6A6664009B2E966C627678ED
S123FF407A0039006F206D6561AF002B7E7C022321003D00005F5924229F3CA9004847526E
S123FF605351A00D9800A4A6A5A199A25B4E0043A7B0509D4955540057AC3FB24B4A464494
S123FF8000AE2F944C4256585A0028004F204D4541AF00257D7B036040007F00005E592A1D
S123FFA0269F3EAA004847525351A00D9800A4A6A5A199A25D4E0043A7B0509D49555400D7
S123FFC057AD27B24B4A464400A35C954C4256585A0029004F204D4541AF02035E5F7C7D22
S123FFE07E5D7D7C5C5B7E5E4F44554C4500FEFFF749F6F6EFE5F749FEFFF749F749FEFF66
